:100000000C942A000C9436000C944E000C9498002A
:100010000C9498000C9498000C9498000C94980000
:100020000C9498000C9498000C9498000C949800F0
:100030000C9498000C9498000C9498000C949800E0
:100040000C9498000C9498000C9466000C94980002
:100050000C94980011241FBECFE5D4E0DEBFCDBFC5
:0C0060000E947E000C948D00F894FFCFED
:10006C002F932FB72F938F939F9395B381E089276D
:10007C0085BB2FEF81EE94E0215080409040E1F75A
:10008C0000C000009F918F912F912FBF2F91189539
:10009C002F932FB72F938F939F9395B382E089273C
:1000AC0085BB2FEF81EE94E0215080409040E1F72A
:1000BC0000C000009F918F912F912FBF2F91189509
:1000CC002F932FB72F938F939F9395B384E089270A
:1000DC0085BB2FEF81EE94E0215080409040E1F7FA
:1000EC0000C000009F918F912F912FBF2F911895D9
:1000FC0017BA87E084BB11BA94E098BB15BA9CE0A0
:0E010C0092BB90EE9BBF85BF14BE7894FFCFD0
:10011A00EC010E949D000E949C00CE010E949E005C
:06012A00CE010E949A00C4
:040130000C9400002B
:040134000E943400F1
:02013800089528
:02013A00089526
:02013C00089524
:00000001FF
