:100000000C942E000C9407030C9407030C94070324
:100010000C9407030C9407030C9407030C94070338
:100020000C9407030C9407030C9407030C94070328
:100030000C9407030C9407030C9407030C94070318
:100040000C9407030C9407030C9407030C94070308
:100050000C9407030060007700061C0011241FBEEB
:10006000CFE5D4E0DEBFCDBFE4E5F0E040E017C06F
:10007000B591A59135912591059107FD0CC09591FC
:100080008591EF01F92FE82F05900D92A217B30784
:10009000D9F7FE0104C01D92A217B307E1F7EB35B3
:1000A000F40731F70E9458000C94CF02F894FFCF68
:1000B0001ABA8FEF84BB81BB81E08BBB15BA12BA31
:1000C00080E687B987E886B988E30E94C40280E8A1
:1000D0000E94C40281E00E94C4028CE00E94C4021B
:1000E0000F2EF8EEAF2EF3E0BF2EF02D0F2EF4E61C
:1000F000CF2ED12CF02D0AE010E0369A3699FECFA3
:1001000084B1C5B1829586958695837094E0C99F28
:10011000E0011124C82BBE01660F771F660F771F01
:100120006C0F7D1F072E000C880B990B0E94E401B9
:1001300020E030EC4FE754E40E94FC0220E030E085
:100140004AE754E40E9400030E94DA027B0180E641
:1001500090E00E94A902CE01B5010E94700280E3E6
:10016000860F0E94B802CE01B6010E947002CB0138
:10017000B8010E947002805D0E94B802CE01B801F1
:100180000E947002C82FCB01B8010E947002805DEE
:100190000E94B80280E38C0F0E94B80280E80E949F
:1001A000C40280EC0E94C4028AE690E00E94A90288
:1001B000C701B5010E94700280E3860F0E94B80259
:1001C0008EE20E94B802C701B6010E947002CB0104
:1001D000B8010E947002805D0E94B802C701B80198
:1001E0000E947002C82FCB01B8010E947002805D8E
:1001F0000E94B80280E38C0F0E94B80282E790E070
:100200000E94A90280EC0E94C40280E80E94C402FD
:0202100074CFA9
:1002120010C00E94E80258F00E94E10240F029F466
:100222005F3F29F00C94F60251110C94F0020C94E9
:1002320004030E944E0268F39923B1F3552391F30C
:10024200951B550BBB27AA2762177307840738F043
:100252009F5F5F4F220F331F441FAA1FA9F335D0A0
:100262000E2E3AF0E0E832D091505040E695001C54
:10027200CAF72BD0FE2F29D0660F771F881FBB1F0E
:10028200261737074807AB07B0E809F0BB0B802DEC
:10029200BF01FF2793585F4F3AF09E3F510578F018
:1002A2000C94F6020C94F0025F3FE4F3983ED4F310
:1002B200869577956795B795F7959F5FC9F7880FEC
:1002C200911D9695879597F90895E1E0660F771F3E
:1002D200881FBB1F621773078407BA0720F0621BCF
:0E02E200730B840BBA0BEE1F88F7E09508959E
:1002F0000FC00E94E10238F00E94E80220F095232E
:1003000011F00C94F6020C94040311240C94F002E6
:100310000E944E0270F3959FC1F3950F50E0551F58
:10032000629FF001729FBB27F00DB11D639FAA274A
:10033000F00DB11DAA1F649F6627B00DA11D661F99
:10034000829F2227B00DA11D621F739FB00DA11DBA
:10035000621F839FA00D611D221F749F3327A00D74
:10036000611D231F849F600D211D822F762F6A2F10
:1003700011249F5750409AF0F1F088234AF0EE0F75
:10038000FF1FBB1F661F771F881F91505040A9F7A2
:100390009E3F510580F00C94F6020C94F0025F3FF2
:1003A000E4F3983ED4F3869577956795B795F795DE
:1003B000E7959F5FC1F7FE2B880F911D9695879556
:0403C00097F908950C
:1003C400E89409C097FB3EF49095809570956195EB
:1003D4007F4F8F4F9F4F9923A9F0F92F96E9BB27A1
:1003E4009395F695879577956795B795F111F8CF1D
:1003F400FAF4BB0F11F460FF1BC06F5F7F4F8F4F88
:100404009F4F16C0882311F096E911C0772321F07D
:100414009EE8872F762F05C0662371F096E8862F15
:1004240070E060E02AF09A95660F771F881FDAF76C
:0A043400880F9695879597F90895B3
:10043E000E94560288F09F5798F0B92F9927B7510E
:10044E00B0F0E1F0660F771F881F991F1AF0BA956A
:10045E00C9F714C0B13091F00E94EF02B1E00895D7
:10046E000C94EF02672F782F8827B85F39F0B93FC9
:10047E00CCF3869577956795B395D9F73EF490951D
:0E048E008095709561957F4F8F4F9F4F089519
:10049C0057FD9058440F551F59F05F3F71F0479529
:1004AC00880F97FB991F61F09F3F79F0879508950E
:1004BC00121613061406551FF2CF4695F1DF08C02D
:1004CC00161617061806991FF1CF8695710561054A
:0404DC0008940895E3
:1004E00097FB072E16F4009407D077FD09D00E94E1
:1004F000840207FC05D03EF4909581959F4F0895A6
:08050000709561957F4F08958D
:10050800AA1BBB1B51E107C0AA1FBB1FA617B70731
:1005180010F0A61BB70B881F991F5A95A9F780954D
:080528009095BC01CD0108957E
:10053000092E0394000C11F4882352F0BB0F40F4F1
:10054000BF2B11F460FF04C06F5F7F4F8F4F9F4F31
:0205500008950C
:10055200CF93DF93EC018881882331F021960E94AA
:0E056200B80289918111FBCFDF91CF910895EE
:1005700085BB80EA82BB8FE99FE00197F1F700C05D
:08058000000080E882BB089531
:1005880085BB80E282BB8FE99FE00197F1F700C04D
:06059800000012BA0895F4
:10059E00EC010E940C030E940B03CE010E940D037E
:0605AE00CE010E940903CA
:0E05B4000E941F026894B1110C94F002089589
:0E05C20000240A941616170618060906089556
:0E05D00000240A941216130614060506089558
:0E05DE00E894BB2766277727CB0197F908958D
:0C05EC0097F99F6780E870E060E00895D8
:0805F8000E9409010C94980215
:080600000E9478010C9498029D
:060608009FEF80EC089555
:04060E000C94000048
:040612000E945600EC
:02061600089545
:02061800089543
:02061A00089541
:10061C00524157204F2F503A2000564F4C54533ACA
:07062C0020002056202000F1
:00000001FF
