:1000000018C056CE55CE54CE53CE52CE51CE50CE31
:100010004FCE4ECE4DCE4CCE4BCE4ACE49CE48CE14
:1000200047CE46CE45CE0060006280006200C5002B
:100030001CBA11241FBECFE5D4E0DEBFCDBFE6E27F
:10004000F0E040E017C0B591A5913591259105915B
:1000500007FD0CC095918591EF01F92FE82F0590D0
:100060000D92A217B307D9F7FE0104C01D92A21783
:10007000B307E1F7E233F40731F743D6E8CDF8945C
:02008000FFCFB0
:10008200A5E2B0E0E6E4F0E0B3CC9F8F8E8F7F8BE9
:100092006E8B298FFB010190F081E02DFA87E987B1
:1000A200FB0102811381248135813B8B2A8B808560
:1000B200918599A388A326803780FA018080918058
:1000C200A280B38020E030E0A901C501B401E0DDE7
:1000D20087FF06C0B7FAB094B7F8B0948DE204C0B7
:1000E200598552FF31C38BE2F10180832A893B8912
:1000F200215031093C832B8341E050E0598B488BDE
:1001020006C08A899B899C838B83198A188AD501A8
:10011200C401BF770097E0E8AE07EFE7BE0799F4A6
:10012200F98D2F2FFF0F330B2154310988899989BB
:10013200820D931D2A31310518F468EA70E019C066
:100142006CEA70E016C00197A048BF47A0F0498D45
:10015200242F440F330B2154310988899989820D48
:10016200931D2A31310518F460EB70E002C064EB94
:1001720070E047DDDBC220E030E0A901C501B40137
:1001820087DDC12CD12C20E8E22E2FE3F22E1A8239
:100192001982882309F485C08D829E82AF82B88637
:1001A20020E030E040E251E4C701B6017EDD2B01E0
:1001B2003C01D501C40184199509A609B709B7FF05
:1001C20007C0B095A095909581959F4FAF4FBF4FB7
:1001D2000297A105B10544F489819A8101969A8317
:1001E200898373016201DCCFA5019401C301B201CD
:1001F2004FDD87FDF1CF8D819E81AF81B8858C194E
:100202009D09AE09BF090196A11DB11D0397A10564
:10021200B10508F444C01E821D82A5019401C701E4
:10022200B6013ADD1816ECF5E981FA81E43DFE4F9C
:10023200D4F44D815E81452BB1F420E030E040E8FA
:100242005AE5C501B40131DD4B015C0120E030E02B
:1002520040E85AE5C701B60128DD6B017C0181E067
:1002620090E09E838D8320E030E040E251E4C701BC
:10027200B60119DD6B017C01E981FA813197FA83BC
:10028200E983D501C4018C199D09AE09BF09019604
:10029200A11DB11D0397A105B10508F0BECF46010E
:1002A2005701F98D8F2FFF0F990BB3DC888F17FD44
:1002B20003C01E830D8304C026E030E03E832D83FD
:1002C200388D373639F4012B41F441E050E05E833A
:1002D2004D8303C0288D2F8714C089819A818C3F5A
:1002E2009F4F0CF436C289819A81ED81FE818E176F
:1002F2009F070CF02EC229813A8137FF2DC236E6C4
:100302003F874D815E814F5F5F4F5E834D835F8587
:100312005636B9F489819A8197FF08C0C12CD12C35
:1003220090E8E92E9FE3F92E1A821982988D97366A
:1003320041F0ED81FE8129813A81E20FF31FFE83B4
:10034200ED831C2DDCA2EAA20F2D8B869C86AD8646
:10035200BE861D8A1C8A8C899D89ED81FE818E173D
:100362009F07ACF5212F3CA14AA1502F6B857C85BC
:100372008D859E8598DC7AD52B013C0184DC6A8FC1
:10038200A3019201612F7CA18AA1902F8EDC2B8583
:100392003C854D855E8572DC9B01AC0150582B87F4
:1003A2003C874D875E8720E030E040E251E4612FD8
:1003B2007CA18AA1902F77DC162F7CA38AA3092F18
:1003C2004C895D894F5F5F4F5D8B4C8BC4CF20E0C2
:1003D20030E040EA50E4612F7CA18AA1902F65DCD5
:1003E2002B013C019B01AC016B857C858D859E8533
:1003F2004FDC87FD0CC0A30192016B857C858D8546
:100402009E8546DC811106C0FA8DF0FD03C0412CA9
:10041200512C3201A5019401C301B20130DC4B0120
:100422005C0120E030E040E251E4C701B6013DDC6E
:100432006B877C8B182F092F9B01482F592FC501E1
:10044200B4012ADC87FD14C029813A812F5F3F4F16
:100452003A8329833F85363679F44D815E814F5F39
:100462005F4F5E834D835B855CA38C898DA30BC03C
:10047200CB86DC8A1E2D0F2D9F85953639F0EB85B4
:10048200ECA3FC89FDA3E980FA8006C02B852CA38E
:100492003C893DA3E12CF12C48885988C12CD12CF0
:1004A2001D8A1C8A1C861B8649855A8540715527E0
:1004B2005BA34AA32B853C854D815E8124173507BA
:1004C20034F08C899D89892B09F48EC099C0320140
:1004D200EE89FF898085918505974816590688F728
:1004E2002CA13DA1412F502FC501B401DCDBBED4AC
:1004F2006A8F7B8F8C8F9D8FC6DB6A30710514F0FB
:1005020069E070E08AA19BA1892B69F461157105EC
:1005120051F4988D973639F4F7FE05C03601EFEFA6
:100522006E1A7E0A38C02C893D89232B99F4F7FE76
:1005320011C03FEF431A530AF101E60DF71D4EE2D7
:1005420040838B819C8101979C838B83E1E0F0E067
:10055200FD8BEC8BF101E40DF51D36016114710484
:1005620031F020E3219331E0631A7108F7CFC6011D
:10057200840D951D2B813C812C193D092C014FEFD7
:10058200441A540AF101E80FF91F605D6083C90142
:1005920001979C838B832A8D3B8D4C8D5D8D6CA145
:1005A2007DA1812F902F81DBA501940167DB4B0197
:1005B2005C01B7FAB094B7F8B09420E030E040E2C2
:1005C20051E46CA17DA1812F902F6DDB6CA37DA3E3
:1005D200182F092F91E0E91AF108EB85FC85319675
:1005E200FC87EB87630166CFF985F4FF09C0F1014F
:1005F200E40DF51D8EE2808392012F5F3F4F2901AA
:10060200A101440D551D5E834D83FA011082FF85C1
:10061200F53609F061C0E8A1F9A1E20DF31D3197A9
:10062200108229813A8137FF08C03195219531091D
:100632003A83298301E010E002C000E010E0E8A163
:10064200F9A13197E20DF31D22E030E08AE0E82EB5
:10065200F12CCF018219930949815A81452B89F0E6
:1006620089819A81B7013EDA805D829369837A83B8
:10067200215031094B815C81415051095C834B838C
:10068200E8CF1216130664F3FC013197E20DF31D55
:10069200012B11F42BE201C02DE220830297B1015C
:1006A200680F791F598D252F550F330B21543109AE
:1006B2002A31310510F025E601C025E4FB01208333
:1006C2002B813C81225031093C832B8348165906E9
:1006D2001CF48D819E8195DA398531FF27C030FD6A
:1006E20025C04B815C811416150604F5C1015FDA41
:1006F200820D931D9C0122193309488959892417B7
:1007020035074CF0FC012081EB81FC81E80FF91FD9
:1007120020830197EFCF4B815C8160E370E0888991
:100722009989820D931D5BDA1B8A1A8AC1013FDA0D
:1007320009851A852A893B89AC01B1018E8D9F8D6D
:10074200FBD7A596E2E170C9598553FFDACC80E266
:0E075200CBCCF5E6FF87F5CD36E63F87F2CD3E
:10076000AEE0B0E0E5EBF3E047C94C016B011A8263
:1007700019828FEF9FEF9C838B831E821D82588787
:100780004F833A872987A12CB12CD6016D907C909C
:10079000F301EA0DFB1D808181110FC0D601ED939D
:1007A000FC938081853209F0BEC13F01BFEF6B1A17
:1007B0007B0AF6017182608218C0853279F3B40138
:1007C000082E000C990B7DD64FEFA41AB40ADDCF8A
:1007D0008C32ACF08D32F9F489819A8181609A83F0
:1007E00089833196D601ED93FC93D601ED91FC916E
:1007F00080818B3269F789819A818460F0CF803261
:1008000021F489819A818860EACF833251F4898109
:100810009A818061E4CF803321F489819A8182605A
:10082000DECFB701C601BDD79E838D8397FF0BC076
:1008300029813A81B1E02B273A83298391958195CB
:1008400091099E838D8389819A8180FF03C08D7F6A
:100850009A838983D601ED91FC91119780818E3224
:1008600041F43196ED93FC93B701C6019AD79C836E
:100870008B83C6017ED8582ED601ED91FC918081E4
:10088000082E000C990BC6D9893609F440C084F4AF
:10089000833609F4F3C034F4853209F418C1813683
:1008A000D9F021C1843699F188360CF4CCC01BC133
:1008B000803709F490C03CF48E3609F4B0C08F360E
:1008C00009F45AC010C18537E1F1883709F46EC0C8
:1008D000833709F008C1E5C0652D70E0A701CE019E
:1008E0000B9667D8892B09F418C1D601ED91FC91BC
:1008F0001197CF0101968D939C932081AE01455FA6
:100900005F4FBE016F5F7F4FC4017ADB03C1652D6E
:1009100070E0970141E050E0CE010B9689D3892B1E
:1009200009F4FBC0F6018081918101969183808357
:10093000AE01455F5F4FBE016F5F7F4FC4010AD3B9
:10094000E9C0652D70E0970140E050E0CE010B96C4
:100950006FD3892B09F4E1C0D6018D919C91119739
:1009600001968D939C93AE01455F5F4FBE016F5F13
:100970007F4FC401F2D5CEC0652D70E0970140E0F5
:1009800050E0CE010B9654D3892B09F4C6C0F60172
:1009900080819181019691838083AE01455F5F4F95
:1009A000BE016F5F7F4FC40137D5B4C0652D70E0C5
:1009B000970140E050E0CE010B963AD3892B09F421
:1009C000ACC0D601ED91FC911197CF0101968D93AA
:1009D0009C9320811BC0970140E050E060EF70E0E5
:1009E000CE010B9625D3892B09F497C0F60180819F
:1009F00091810196918380838B859C85892B29F435
:100A000020E030E04FEB50E080C028E7AE01455FCA
:100A10005F4FBE016F5F7F4FC40189D07BC0A501CE
:100A2000400F511F652D70E09701CE010B96E8DA5B
:100A3000892B09F472C0D6018D919C911197019672
:100A40008D939C9370C0652D70E0A701CE010B962D
:100A5000B0D7892B09F461C0D601ED91FC911197B3
:100A6000CF0101968D939C932081AE01455F5F4F2E
:100A7000BE016F5F7F4FC40104DB4CC0B0E85B1266
:100A80004CC0F60180819181019691838083D701CA
:100A9000ED91FC911197CF0102968D939C938081EB
:100AA00020C0B0E85B1239C0F601808191810196C7
:100AB00091838083D701ED91FC911197CF0102962C
:100AC0008D939C934081518120E030E01EC0B0E8BE
:100AD0005B1223C0F601208131812F5F3F4F3183AC
:100AE00020838B870DC085E28B87D6016D927C9227
:100AF0001A8219821E821D828FEF9FEF9C838B8347
:100B000021E030E0AE01455F5F4FBE016F5F7F4F78
:100B1000C401A1D68A0D9B1D07C0F6018081918179
:0E0B2000019691838083C5012E96EFE081C778
:100B2E00AFE0B0E0ECE9F5E05DC71C016B015A8364
:100B3E0049832B83FB018281938184809580008180
:100B4E001181A680B78097FD02C00D7F02C081E0A3
:100B5E0090E0E981FA814080518062807380980133
:100B6E00207133273D832C83740104FF08C0411488
:100B7E0051046104710419F032E0E31AF108F8012E
:100B8E00E870FF27FF83EE8303FF03C0F1E0EF1A47
:100B9E00F108F6010084F185E02D3197FF87EE878D
:100BAE00EA0DFB1D10829C012E193F0939872887FB
:100BBE00C801827099279B878A87EB818E2FEE0F53
:100BCE00990B9C01215431093D872C872E853F8539
:100BDE002230310530F48C819D81892B09F041C082
:100BEE005BC0411451046104710459F18E859F85D7
:100BFE0001979F878E87C2018F7099278A30910542
:100C0E0014F4C09602C0895A9F4FEC85FD857A97E1
:100C1E0040F49C012062215631092A31310508F435
:100C2E00E1D7EE85FF85EA0DFB1D8083F1E0EF1A1B
:100C3E00F10884E076946794579447948A95D1F797
:100C4E00C5CF888599858E0D9F1D1816190674F2CD
:100C5E001E141F040CF0BFCFEA85FB85EF2B31F677
:100C6E00BACFE981FA8180819181A281B381892BEA
:100C7E008A2B8B2B89F0EE85FF85EA0DFB1D3197B4
:100C8E002B8120838E859F8502979F878E87FC01FF
:100C9E00EA0DFB1D80E38083EE81FF81EF2B59F07F
:100CAE002E853F85215031093F872E87F901EA0DA8
:100CBE00FB1D80E28083F60140855185415051092C
:100CCE002E853F85421B530BB9016A0D7B1D940186
:100CDE00C1012CD59C01F1018081918190FF06C04C
:100CEE00F60182819381821793070CF4C9012F9626
:040CFE00E2E194C6D5
:100D0200CF93DF93CDB7DEB7C054D1090FB6F894B5
:100D1200DEBF0FBECDBFADD78FEF81BB87BB81E0FA
:100D2200F4D682E0F2D686E0F0D688E3EED68CE006
:100D3200ECD60F2EF2E64F2EF0E05F2EF02DCE0114
:100D420001963C010F2EFCE62F2EF0E03F2EF02DF7
:100D52004E0191E1890E911C5E0121E3A20EB11CAC
:100D62006E0181E2C80ED11C80E090E02ED781E0B6
:100D720090E02BD780E090E028D77C0181E090E0E2
:100D820024D78C0180E090E020D79F938F935F92CD
:100D92004F927F926F92EED681E090E016D79F93AA
:100DA2008F933F922F929F928F92E4D6B701FF0CBE
:100DB200880B990B16D420E030EC4FE754E473D73C
:100DC20020E030E040EA50E470D79F938F937F9306
:100DD2006F9386E790E09F938F93BF92AF92CAD6AC
:100DE200B801110F880B990BFCD320E030EC4FE7D0
:100DF20054E459D720E030E040EA50E456D79F93BC
:100E02008F937F936F9384E890E09F938F93DF9209
:100E1200CF92B0D681E079D680E877D6C301B9D631
:100E220080EC73D6C501B5D68FE39DE023E08150F7
:100E320090402040E1F700C0000081E066D680E8E3
:100E420064D6C401A6D680EC60D6C601A2D68FE3D2
:100E52009DE023E0815090402040E1F700C0000077
:0C0E62000FB6F894DEBF0FBECDBF7ECFF0
:100E6E008F929F92AF92BF92CF92DF92EF92FF92AC
:100E7E000F931F938B019C0157E13695279517957C
:100E8E0007955A95D1F71127A8014F5751094731A8
:100E9E0051050CF045C057FD2DC00FEF1FEF2FE78A
:100EAE0030E004C035952795179507954A95D2F7EA
:100EBE004801590186229722A822B92289288A2818
:100ECE008B2871F197FF07C0DC01CB01800F911FBA
:100EDE00A21FB31F02C0DC01CB0100951095209517
:100EEE00309580239123A223B323482F392F2A2F05
:100EFE005B2F1AC097FF0FC08B019C01000F111FB3
:100F0E00221F331F012B022B032B51F040E030E048
:100F1E0020E85FEB09C040E030E020E050E004C084
:100F2E00462F372F282F592F642F732F822F952F4F
:100F3E001F910F91FF90EF90DF90CF90BF90AF90E9
:060F4E009F908F900895B2
:100F5400A2E0B0E0EFEAF7E04AC53C016B01FB0117
:100F640022813381A480B580808191819A83898391
:100F740086809780FA012080318042805380B201BC
:100F8400A10157FE07C044275527BA014219530946
:100F94006409750937FD03C08D7F9A8389839501A0
:100FA40057FC05C0898182FD02C083FF02C0215025
:100FB4003109CE0101967C010AE010E0C60167D137
:100FC40057FC03C0298122FF0AC00197F401E80FEE
:100FD400F91F57FC02C02BE209C02DE207C023FF12
:100FE40006C00197F401E80FF91F20E2208309816C
:100FF4001A81F6014085518541505109481B590B0E
:10100400B401680F791F9501C30195D39C01F301C5
:101014008081918190FF06C0F601828193818217BD
:0C10240093070CF4C9012296E2E1FDC420
:10103000CF93DF93DC01F90168387105F1F05CF4BE
:101040006138710561F164387105A1F1603871058D
:1010500009F051C02FC0603C710509F441C0603FE8
:101060007105F1F1603A710509F045C0C081D18187
:10107000CE0102969183808325C0C081D181CE01AB
:10108000029691838083452B39F04881042E000C11
:10109000550B660B770B1CC0488150E029C0C081FE
:1010A000D181CE01049691838083488159816A81E0
:1010B0007B810EC0C081D181CE0102969183808355
:1010C000452BA1F048815981052E000C660B770B4A
:1010D0004D935D936D937C93139781E090E00DC0E9
:1010E000C081D181CE01029691838083488159814C
:1010F00060E070E0EDCF80E090E0DF91CF91089567
:101100000BC097D540F08ED530F021F45F3F19F039
:10111000A5C5511196C5C5C5E8D398F39923C9F360
:101120005523B1F3951B550BBB27AA2762177307ED
:10113000840738F09F5F5F4F220F331F441FAA1FA1
:10114000A9F333D00E2E3AF0E0E830D09150504061
:10115000E695001CCAF729D0FE2F27D0660F771F0F
:10116000881FBB1F261737074807AB07B0E809F0F1
:10117000BB0B802DBF01FF2793585F4F2AF09E3F86
:10118000510568F06BC55DC55F3FECF3983EDCF33D
:10119000869577956795B795F7959F5FC9F7880FFF
:1011A000911D9695879597F90895E1E0660F771F51
:1011B000881FBB1F621773078407BA0720F0621BE2
:0E11C000730B840BBA0BEE1F88F7E0950895B1
:1011CE000AC029D528F02ED518F0952309F03FC571
:1011DE0061C511242FC582D3A0F3959FD1F3950F2E
:1011EE0050E0551F629FF001729FBB27F00DB11D9D
:1011FE00639FAA27F00DB11DAA1F649F6627B00D2D
:10120E00A11D661F829F2227B00DA11D621F739F15
:10121E00B00DA11D621F839FA00D611D221F749F23
:10122E003327A00D611D231F849F600D211D822F6A
:10123E00762F6A2F11249F5750408AF0E1F08823B1
:10124E004AF0EE0FFF1FBB1F661F771F881F9150BE
:10125E005040A9F79E3F510570F0F9C4EBC45F3FB3
:10126E00ECF3983EDCF3869577956795B795F795F1
:10127E00E7959F5FC1F7FE2B880F911D9695879579
:04128E0097F908952F
:10129200A0E0B0E0EEE4F9E0ADC3DC01280116966F
:1012A200AD90BC901797F701808191811296ED91D4
:1012B200FC9113971896CD91DC9119972197F7FF1E
:1012C20002C0E1E0F0E0CA0DDB1D18826901A1E075
:1012D200B0E08F01021B130B4C01F2E08F22992424
:1012E200052C000C66087708CE018A199B09CA15DD
:1012F200DB0511F1411551056105710581F0CB0145
:10130200BA01A301920112D3CA01A62FB72F605DC1
:101312006A9341E0C41AD108A901BC01E5CF980142
:101322002C0D3D1D1216130654F31C141D0434F427
:101332008114910421F702C080E090E0AB2B31F4DC
:10134200F701208131812F7E31832083CDB7DEB733
:04135200E0E16CC3A7
:101356000DC065D430F06AD420F031F49F3F11F40B
:101366001EF49CC40EF4E095E7FB75C4E92FBAD2CF
:1013760080F3BA17620773078407950718F071F4AC
:101386009EF55BC40EF4E0950B2EBA2FA02D0B0133
:10139600B90190010C01CA01A0011124FF27591BB4
:1013A60099F0593F50F4503E68F11A16F040A22FBA
:1013B600232F342F4427585FF3CF4695379527952B
:1013C600A795F0405395C9F77EF41F16BA0B620B2A
:1013D600730B840BBAF09150A1F0FF0FBB1F661F71
:1013E600771F881FC2F70EC0BA0F621F731F841FB4
:1013F60048F4879577956795B795F7959E3F08F0DA
:10140600B3CF9395880F08F09927EE0F9795879598
:02141600089537
:10141800A2E0B0E0E1E1FAE0ECC24C016B01FB01B3
:101428002281338164807580808191819A83898348
:10143800A680B78037FD03C08D7F9A838983FA0120
:101448004081518162817381CE0101967C0108E05F
:1014580010E09301C60119DF298124FF06C0019716
:10146800F501E80FF91F20E32083298123FF06C037
:101478000197F501E80FF91F20E2208309811A81FD
:10148800F6014085518541505109481B590BB5015A
:10149800680F791F9301C4014CD19C01F40180812C
:1014A800918190FF06C0F60182819381821793078C
:0A14B8000CF4C9012296EEE0B8C260
:1014C2000F931F93CF93DF93DB01109719F48FEFE4
:1014D2009FEF3DC02D913C91119730FF25C016968C
:1014E2004D915C91179714962D913C911597421747
:1014F200530778F41296ED91FC911397808312961C
:101502002D913C9113972F5F3F4F13963C932E934F
:10151200129716962D913C9117972F5F3F4F179672
:101522003C932E93169713C01C96ED91FC911D9738
:10153200309769F2EB01092F182F0995892B39F69B
:101542008E819F8101969F838E83812F902FDF91C1
:08155200CF911F910F91089544
:10155A00A2E0B0E0E2EBFAE04BC25C016B01FB01F6
:10156A002281338184809580808191819A838983C5
:10157A006680778037FD03C08D7F9A838983FA015D
:10158A004081518162817381CE0101967C010AE01A
:10159A0010E09401C60178DE09811A81F6014085BE
:1015AA00518541505109481B590BB301680F791FE6
:1015BA009401C501BDD09C01F5018081918190FF04
:1015CA0006C0F60182819381821793070CF4C90140
:0615DA002296EEE029C29A
:1015E000E89409C097FB3EF49095809570956195BD
:1015F0007F4F8F4F9F4F9923A9F0F92F96E9BB2773
:101600009395F695879577956795B795F111F8CFEE
:10161000FAF4BB0F11F460FF1BC06F5F7F4F8F4F59
:101620009F4F16C0882311F096E911C0772321F04F
:101630009EE8872F762F05C0662371F096E8862FE7
:1016400070E060E02AF09A95660F771F881FDAF73E
:0A165000880F9695879597F9089585
:10165A00A2E8B0E0E2E3FBE0CDC15C014A01CF576A
:10166A00DF4F79836883C158D040C12CD12CCF5722
:10167A00DF4FE881F981C158D04080818823E1F0A9
:10168A007401860120E830E0AE014F5F5F4FBE0172
:10169A006F577F4FC5015FD88C0D9D1D8C159D0519
:1016AA004CF48FE490E090936100809360008FEF98
:1016BA009FEF03C06C01DBCFC601CE57DF4FECE0D2
:0216CA00B5C1A8
:1016CC00A0E1B0E0EBE6FBE09AC1FB01BA01AE0190
:1016DC004F5F5F4F7A0140E1D7011D924A95E9F7C0
:1016EC0042E051E05A8349839C838B83F7FF09C006
:1016FC008FE490E090936100809360008FEF9FEFF8
:10170C0013C0A9018C013197FE83ED83C701BCD1B5
:10171C004F8158852D813E814217530708F49A0159
:0E172C00F801E20FF31F10826096E6E084C120
:10173A00A0E0B0E0E2EAFBE05DC16C015B017A0186
:10174A00E901480181E08822992400FD03C042177B
:10175A00530748F0A701B501C6017DD1EC16FD0675
:10176A0010F0C70115C08E010E191F0901151105C8
:10177A0039F0B60180E290E09FDE01501109F6CF00
:10178A008114910421F4A701B501C60164D1CE01E7
:08179A00CDB7DEB7ECE04AC157
:1017A200DC01ED91FC91119780818A3221F080E079
:1017B20090E03AE00EC03196ED93FC93DB01ED919F
:1017C200FC911197CF0102968D939C938081918118
:1017D2000895ED91FC911197208120532A3068F4ED
:1017E200389FA001399F500D1124CA01820F911D0B
:0C17F20031961196FC93EE93ECCF089515
:1017FE007DD088F09F5790F0B92F9927B751A0F060
:10180E00D1F0660F771F881F991F1AF0BA95C9F786
:10181E0012C0B13081F00DD2B1E008950AC2672F27
:10182E00782F8827B85F39F0B93FCCF38695779536
:10183E006795B395D9F73EF490958095709561951F
:08184E007F4F8F4F9F4F08955B
:10185600A0E0B0E0E0E3FCE0D1C07C01FB01EA01DE
:10186600C901A280B380C480D580008111812097F0
:1018760011F4C8EBD0E0009711F4CE0196D1B7FC75
:1018860004C0A816B90608F4C5019601AC01BE014C
:0C189600C70150DFCDB7DEB7EAE0CCC0E0
:1018A200990F0008550FAA0BE0E8FEEF161617066F
:1018B200E807F907C0F012161306E407F50798F0D7
:1018C200621B730B840B950B39F40A2661F0232BF0
:1018D200242B252B21F408950A2609F4A140A6956C
:0818E2008FEF811D811D0895A7
:1018EA0057FD9058440F551F59F05F3F71F04795C7
:1018FA00880F97FB991F61F09F3F79F087950895AC
:10190A00121613061406551FF2CF4695F1DF08C0CA
:10191A00161617061806991FF1CF869571056105E7
:04192A000894089580
:10192E00A1E21A2EAA1BBB1BFD010DC0AA1FBB1FD5
:10193E00EE1FFF1FA217B307E407F50720F0A21B47
:10194E00B30BE40BF50B661F771F881F991F1A94B4
:10195E0069F760957095809590959B01AC01BD01DE
:04196E00CF01089508
:10197200CF93DF93EC0190E0E92FF0E0EE0FFF1F31
:10198200EE56FF4F8081811102C081810EC0A88175
:10199200B9812C91821305C091811196B983A883D4
:1019A20001C09F5F9B3040F3892FDF91CF91089553
:1019B200FA0160387105CCF0623871051CF06338A9
:1019C200710599F4A081B1819D012C5F3F4F318354
:1019D20020834D915D916D917C91FC0140835183F7
:1019E2006283738381E090E0089580E090E008953F
:1019F2002F923F924F925F926F927F928F929F921D
:101A0200AF92BF92CF92DF92EF92FF920F931F930A
:101A1200CF93DF93CDB7DEB7CA1BDB0B0FB6F894BB
:081A2200DEBF0FBECDBF099429
:101A2A002A88398848885F846E847D848C849B8464
:101A3A00AA84B984C884DF80EE80FD800C811B8172
:101A4A00AA81B981CE0FD11D0FB6F894DEBF0FBEA1
:061A5A00CDBFED0108956F
:101A6000A0E0B0E0E5E3FDE0CECF6C01EB018A0140
:101A70007B01E40EF51ECE15DF0539F08991B60124
:101A8000082E000C990B1DDDF6CFC801CDB7DEB7CF
:041A9000E8E0D5CFE6
:101A9400A2E0B0E0EFE4FDE0B8CF8C015A834983C3
:101AA400AE014F5F5F4FD7DDF801208124FF02C0F4
:0A1AB4008FEF9FEF2296E4E0C4CF0D
:101ABE00AA1BBB1B51E107C0AA1FBB1FA617B70766
:101ACE0010F0A61BB70B881F991F5A95A9F7809582
:081ADE009095BC01CD010895B3
:101AE60097FB072E16F4009406D077FD08D0E4DFA6
:101AF60007FC05D03EF4909581959F4F089570950B
:061B060061957F4F089578
:101B0C0082BBC098C198C29A81EE94E00197F1F71C
:101B1C0000C00000C29881EE94E00197F1F700C07C
:041B2C000000089518
:101B300082BBC09AC198C29A81EE94E00197F1F7F6
:101B400000C00000C29881EE94E00197F1F700C058
:041B500000000895F4
:101B5400092E0394000C11F4882352F0BB0F40F4B7
:101B6400BF2B11F460FF04C06F5F7F4F8F4F9F4FF7
:021B74000895D2
:101B7600A0E0B0E0E0ECFDE049CFAE01475F5F4F8B
:0E1B86006F8178858D819E816CD0E2E05BCF0F
:101B9400CF93DF93EC018881882329F02196C6DF57
:0C1BA40089918111FCCFDF91CF91089551
:101BB000FC01AF014F5F5F4F2081222311F0FA013A
:0C1BC000F8CF9F01281B390BC9010895C4
:101BCC008F70806487B9369A349BFECF349A84B177
:041BDC0095B1089522
:101BE000FC01480F591FE417F50711F06193FBCF73
:021BF000089556
:101BF2009C01215631092A31310510F48F7599273C
:021C0200089543
:101C0400FC01DB012D91BD0121932111FACF08952F
:101C14009C01215431092A31310508F48062089568
:0E1C240000240A9416161706180609060895DD
:0E1C320000240A9412161306140605060895DF
:0E1C4000E894BB2766277727CB0197F9089514
:0E1C4E00EC0131D02FD0CE012FD0CE012ED000
:0C1C5C0097F99F6780E870E060E0089551
:0C1C68009A01AB016FEF7FE72DDD0895BE
:0A1C740080E487B983E886B908957B
:0A1C7E005058BB27AA2768DB66CF89
:0A1C8800BADD6894B111D9CF0895B8
:081C920007DE08F481E008956B
:081C9A0003DE08F48FEF08954A
:061CA2009FEF80EC0895A5
:041CA8002BDA54CF10
:041CAC0090DA52CFA9
:021CB000A7C1CA
:021CB200089593
:021CB400089591
:021CB60008958F
:021CB800E2D177
:101CBA0056616C7565312025640056616C75653214
:101CCA0020256400766F6C746167653120252E3299
:101CDA006600766F6C746167653220252E32660065
:101CEA0068076C094C836A9074A07AC0008068887F
:061CFA0000846C820081F1
:101D0000494E4600696E66004E414E006E616E009F
:071D1000286E756C6C2900C0
:061D1700286E696C290032
:00000001FF
