:100000000C942D000C942F090C942F090C942F099B
:100010000C942F090C942F090C942F090C942F0980
:100020000C942F090C942F090C942F090C942F0970
:100030000C942F090C942F090C942F090C942F0960
:100040000C942F090C942F090C942F090C942F0950
:100050000C942F0900600062800011241FBECFE5C0
:10006000D4E0DEBFCDBFE4E5F0E040E017C0B591DD
:10007000A59135912591059107FD0CC0959185912C
:10008000EF01F92FE82F05900D92A217B307D9F7CA
:10009000FE0104C01D92A217B307E1F7E935F4078A
:0E00A00031F70E9409060C940509F894FFCF71
:1000AE0068076C094C836A9074A07AC000806888D7
:0600BE0000846C82008149
:0E00C4004144432076616C7565202564200060
:0700D200286E756C6C29001B
:0600D900286E696C29008D
:1000E0002F923F924F926F927F928F929F92AF92F8
:1000F000BF92CF92DF92EF92FF920F931F93CF9315
:10010000DF93CDB7DEB72E970FB6F894DEBF0FBEE4
:10011000CDBF4C016B0138011A8219828FEF9FEF1E
:100120009C838B831E821D8258874F833A87298741
:10013000A12CB12CD6012D913D914C912A0D3B1D46
:10014000411DB7FC4A95F901849147FD80818111D9
:1001500016C0F601208331834283F901849147FD63
:100160008081853209F00FC21901442EFFEF2F1A4A
:100170003F0A4F0AD6012D923D924C921BC0853208
:1001800041F3B401082E000C990B0E9456064FEF64
:10019000A41AB40ACFCF2C32DCF02D3229F52981F4
:1001A0003A8121603A8329830196A11DF60180835B
:1001B0009183A283F60180819181A281FC01249127
:1001C000A7FD20812B3239F729813A812460EACFBB
:1001D000203221F429813A812860E4CF233251F47E
:1001E00029813A812061DECF203321F429813A81AF
:1001F0002260D8CFB701C6010E94BC079E838D83C1
:1002000097FF0BC029813A81F1E02F273A83298398
:100210009195819591099E838D8389819A8180FF33
:1002200003C08D7F9A838983F60180819181A281A9
:10023000FC012491A7FD20812E3261F40196A11DBD
:10024000F60180839183A283B701C6010E94BC0797
:100250009C838B83C6010E94BA05182FD6012C916E
:1002600011968C91119712969C91E22FF82F849100
:1002700097FD8081082E000C990B0E942209893677
:1002800009F44AC084F4833609F419C134F4853280
:1002900009F445C18136E1F050C18436E9F1883670
:1002A0000CF4E9C04AC1803709F4B0C03CF48E3682
:1002B00009F4D6C08F3609F46DC03FC1853709F403
:1002C0004AC0883709F485C0833709F036C10DC1AB
:1002D000612F70E0A701CE010B960E940000892BD0
:1002E00009F448C1F60180819181A2819C014A2FC5
:1002F0002F5F3F4F4F4F208331834283FC01249176
:10030000A7FD2081AE01455F5F4FBE016F5F7F4F4C
:10031000C4010E9400002BC1612F70E0970141E0F1
:1003200050E0CE010B960E943C04892B09F422C1B7
:10033000F60180819181A2810196A11D8083918324
:10034000A283AE01455F5F4FBE016F5F7F4FC40167
:100350000E94C9030CC1612F70E0970140E050E09A
:10036000CE010B960E943C04892B09F403C1F601CF
:1003700080819181A2810196A11D80839183A283B6
:10038000AE01455F5F4FBE016F5F7F4FC4010E94AA
:100390003707EDC0612F70E0970140E050E0CE01DB
:1003A0000B960E943C04892B09F4E4C0F60180817D
:1003B0009181A2810196A11D80839183A283AE01C8
:1003C000455F5F4FBE016F5F7F4FC4010E940E0506
:1003D000CEC0612F70E0970140E050E0CE010B9657
:1003E0000E943C04892B09F4C5C0F60180819181EB
:1003F000A2819C014A2F2F5F3F4F4F4F20833183B3
:100400004283FC012491A7FD208120C0970140E098
:1004100050E060EF70E0CE010B960E943C04892B07
:1004200009F4A8C0F60180819181A2810196A11DE5
:1004300080839183A2838B859C85892B31F400E096
:1004400010E029ED30E040E08CC028E7AE01455FC8
:100450005F4FBE016F5F7F4FC4010E94DC0287C007
:10046000A501460D571D612F70E09701CE010B9637
:100470000E9400007FC0612F70E0A701CE010B96A3
:100480000E940000892B09F475C0F60180819181DA
:10049000A2819C014A2F2F5F3F4F4F4F2083318312
:1004A0004283FC012491A7FD2081AE01455F5F4F8F
:1004B000BE016F5F7F4FC4010E94000058C010381A
:1004C00009F058C0F60180819181A2810196A11D99
:1004D00080839183A283D701ED91FC911197CF0185
:1004E00002968D939C93808126C0103809F042C0FB
:1004F000F60180819181A2810196A11D8083918363
:10050000A283D701ED91FC911197CF0103968D93B2
:100510009C9320813181428100E010E022C010389C
:1005200049F5F6012081318142812F5F3F4F4F4FC6
:100530002083318342838B870EC085E28B87F6014F
:100540002082318242821A8219821E821D828FEF9E
:100550009FEF9C838B839E01255F3F4F40E801E026
:1005600010E0BE016F5F7F4FC4010E947F078A0DBC
:100570009B1D0AC0F60180819181A2810196A11D77
:1005800080839183A283C5012E960FB6F894DEBFB7
:100590000FBECDBFDF91CF911F910F91FF90EF90D4
:1005A000DF90CF90BF90AF909F908F907F906F9093
:0805B0004F903F902F90089539
:1005B800AFE0B0E0E2EEF2E00C944E081C016B01F3
:1005C8005A8349832B83FB018281938184809580A0
:1005D800E080F180A680B78097FD03C0E894E1F839
:1005E80002C081E090E0E981FA8140805180628018
:1005F80073809701207133273D832C838401E4FEA7
:1006080007C0411451046104710411F0025011092A
:10061800F701E870FF27FF83EE83E3FE02C0015075
:100628001109F6010084F185E02D3197FF87EE87E7
:10063800EA0DFB1D10829C01201B310B398728878E
:10064800C701827099279B878A87EB818E2FEE0FCF
:10065800990B9C01215431093D872C872E853F85B4
:100668002230310530F48C819D81892B09F041C0FD
:100678005BC0411451046104710459F18E859F8552
:1006880001979F878E87C2018F7099278A309105BD
:1006980014F4C09602C0895A9F4FEC85FD857A975D
:1006A80048F49C012062215631092A31310510F4A1
:1006B8000E941909EE85FF85EA0DFB1D8083015014
:1006C800110984E076946794579447948A95D1F7F2
:1006D800C5CF88859985800F911F1816190674F261
:1006E800101611060CF0BFCFEA85FB85EF2B31F60B
:1006F800BACFE981FA8180819181A281B381892B66
:100708008A2B8B2B89F0EE85FF85EA0DFB1D31972F
:100718002B8120838E859F8502979F878E87FC017A
:10072800EA0DFB1D80E38083EE81FF81EF2B59F0FA
:100738002E853F85215031093F872E87F901EA0D23
:10074800FB1D80E28083F601208531852150310927
:100758008E859F85281B390B8A0D9B1DAC0160E88F
:100768008401C1010E94A2069C01F101808191814E
:1007780090FF06C0F60182819381821793070CF4DB
:0A078800C9012F96E2E10C946A0803
:10079200A2E0B0E0EFECF3E00C944E084C016B01E8
:1007A200FB0122813381A480B580808191819A836B
:1007B200898366807780FA0120803180428053806D
:1007C200B201A10157FE07C044275527BA014219B9
:1007D20053096409750937FD03C08D7F9A838983A4
:1007E200950157FC05C0898182FD02C083FF02C0CA
:1007F20021503109CE0101967C010AE010E0C601C8
:100802000E94A90457FC03C0298122FF0AC0019754
:10081200F301E80FF91F57FC02C02BE209C02DE2D9
:1008220007C023FF06C00197F301E80FF91F20E27A
:100832002083E980FA80F601208531852150310933
:10084200281B390B860D971DAC0160E88501C40198
:100852000E94A2069C01F4018081918190FF06C052
:10086200F60182819381821793070CF4C9012296C3
:06087200E2E10C946A08AB
:10087800CF93DF93DC01F90168387105F1F05CF47E
:100888006138710561F164387105C9F16038710525
:1008980009F056C034C0603C710561F1603F7105D4
:1008A80009F443C0603A710509F04AC0C081D1819A
:1008B800CE010296918380832AC0C081D181CE0166
:1008C800029691838083452B39F04881042E000CD1
:1008D800550B660B770B21C0488150E02EC0C081B4
:1008E800D181CE01049691838083488159816A81A0
:1008F8007B8113C0C081D181CE0102961AC0C0810C
:10090800D181CE01029691838083452BA1F0488145
:100918005981052E000C660B770B4D935D936D93F3
:100928007C93139781E090E00DC0C081D181CE0106
:100938000396918380834881598160E070E0EDCF10
:0A09480080E090E0DF91CF91089568
:10095200A0E0B0E0EFEAF4E00C945008DC012801DA
:100962001696AD90BC901797F701808191811296EF
:10097200ED91FC9113971896CD91DC9119972197DF
:10098200F7FF02C0E1E0F0E0CA0DDB1D1882690149
:10099200A1E0B0E08F01021B130B4C01F2E08F22A9
:1009A2009924052C000C66087708CE018A199B0948
:1009B200CA15DB0519F1411551056105710589F06B
:1009C200CB01BA01A30192010E942C08CA01A62FF1
:1009D200B72F605D6A9341E0C41AD108A901BC0136
:1009E200E4CF98012C0D3D1D121613064CF31C1476
:1009F2001D0434F48114910419F702C080E090E0E0
:100A0200AB2B31F4F701208131812F7E318320839A
:0A0A1200CDB7DEB7E0E10C946C08EC
:100A1C00A2E0B0E0E4E1F5E00C9452085C016B015B
:100A2C00FB012281338184809580808191819A831E
:100A3C0089836680778037FD03C08D7F9A83898395
:100A4C00FA014081518162817381CE0101967C0152
:100A5C0008E010E09401C6010E94A904298124FF3A
:100A6C0006C00197F301E80FF91F20E320832981C9
:100A7C0023FF06C00197F301E80FF91F20E2208342
:100A8C00E980FA80F6012085318521503109281B37
:100A9C00390B860D971DAC0160E88401C5010E94DD
:100AAC00A2069C01F5018081918190FF06C0F601A0
:100ABC0082819381821793070CF4C9012296EEE090
:040ACC000C946E0810
:100AD0006F927F928F92EF92FF920F931F93CF931B
:100AE000DF93CDB7DEB761970FB6F894DEBF0FBEC8
:100AF000CDBFFE01319651E1DF011D925A95E9F714
:100B0000A2E0B1E0BA83A9839C838B8377FF09C0FD
:100B10008FE490E090936100809360008FEF9FEFEF
:100B200019C03901842E7C01615071097F836E8365
:100B30009801682DA301CF010E9485084885598539
:100B40002E813F814217530708F49A01F701E20F03
:100B5000F31F108261960FB6F894DEBF0FBECDBFB3
:100B6000DF91CF911F910F91FF90EF908F907F9029
:040B70006F900895E5
:100B7400CF92DF92EF92DC0190E0292F30E0220F38
:100B8400331F6901032E000CEE086E2DA601425599
:100B94005F4F6F4F6A01E62EFA018491E7FC808172
:100BA40081110DC02F5F3F4F032E000C440B2255C3
:100BB4003F4F4F4FF901849147FD808124C0CD9070
:100BC400DD90EC901297F6014491E7FC4081841388
:100BD40015C02F5F3F4F032E000C440B22553F4F8F
:100BE4004F4FF901949147FD90815FEFC51AD50AE3
:100BF400E50ACD92DD92EC92129701C09F5F9B3083
:0E0C040008F4BBCF892FEF90DF90CF900895BA
:100C1200CF93DF93CDB7DEB72A970FB6F894DEBF36
:100C22000FBECDBF81E08BBB8FEF82BB84BB81E067
:100C32000E94C60882E00E94C60886E00E94C6089A
:100C420088E30E94C6088CE00E94C6080E942A0916
:100C52000F2EF4ECCF2EF0E0DF2EF0E0EF2EF02D91
:100C62008E010F5F1F4F2FEF80E792E021508040EF
:100C72009040E1F700C0000080E090E00E9410097F
:100C82009F938F93EF92DF92CF921F930F930E94C5
:100C9200B30880E80E94C608C8010E94EA080FB69D
:0A0CA200F894DEBF0FBECDBFDECF19
:100CAC000F931F93CF93DF93DB01109719F48FEF02
:100CBC009FEF3DC02D913C91119730FF25C01796A9
:100CCC004D915C91189715962D913C911697421762
:100CDC00530778F41296ED91FC911397808312963A
:100CEC002D913C9113972F5F3F4F13963C932E936E
:100CFC00129717962D913C9118972F5F3F4F18968E
:100D0C003C932E93179713C01D96ED91FC911E9753
:100D1C00309769F2EB01092F182F0995892B39F6B9
:100D2C008F819885019698878F83812F902FDF91E3
:080D3C00CF911F910F91089562
:100D44006F927F928F92AF92BF92CF92DF92EF9287
:100D5400FF920F931F93CF93DF935C013A01862E8A
:100D6400E901670181E0C822DD24E0FC03C020170B
:100D7400310758F09E01682DA301C5010E94F807B0
:100D8400C017D10710F0CE0118C07801EC1AFD0A83
:100D9400E114F10449F0B50180E290E00E945606A6
:100DA40081E0E81AF108F4CFCD2831F49E01682DD2
:100DB400A301C5010E94F807C801DF91CF911F91DB
:100DC4000F91FF90EF90DF90CF90BF90AF908F90F6
:060DD4007F906F9008956E
:100DDA00A3E8B0E0E3EFF6E00C9454085C014901A3
:100DEA00CF57DF4F488359836A83C158D040C12CFB
:100DFA00D12CCF57DF4F2881C158D040CE57DF4F73
:100E0A009881C258D040CD57DF4F8881C358D0400F
:100E1A00E22FF92F949187FD90819923E9F07401CB
:100E2A00860120E830E0AE014F5F5F4FBE016F5789
:100E3A007F4FC5010E9470008C0D9D1D8C159D056C
:100E4A004CF48FE490E090936100809360008FEF00
:100E5A009FEF03C06C01CDCFC601CD57DF4FECE049
:040E6A000C9470086C
:100E6E00A2E0B0E0EDE3F7E00C9452085C016B01F8
:100E7E00FB012281338184809580808191819A83C8
:100E8E0089836680778037FD03C08D7F9A8389833F
:100E9E00FA014081518162817381CE0101967C01FC
:100EAE000AE010E09401C6010E94A904E980FA80CC
:100EBE00F6012085318521503109281B390B860D0D
:100ECE00971DAC0160E88401C5010E94A2069C0139
:100EDE00F5018081918190FF06C0F6018281938198
:100EEE00821793070CF4C9012296EEE00C946E085B
:100EFE006F927F928F92CF92DF92EF92FF920F932B
:100F0E001F93CF93DF936C01FB013901842EC8012F
:100F1E00C281D38104811581E080F180232B242BA3
:100F2E0031F422ED622E20E0722E20E0822E009708
:100F3E0021F4882DB3010E949D08D7FD04C0C81767
:100F4E00D90708F4CE019C01682DA301C6010E94A9
:100F5E00A206DF91CF911F910F91FF90EF90DF903E
:0A0F6E00CF908F907F906F90089550
:100F7800DC012D913D914C911297F901849147FD27
:100F880080818A3221F080E090E07AE011C02F5F02
:100F98003F4F4F4F2D933D934C93DB01ED91FC91C7
:100FA8001197CF0102968D939C938081918108952A
:100FB8002D913D914C911297F901549147FD508123
:100FC80050535A3080F4789FF001799FF00D112426
:100FD800CF01850F911D2F5F3F4F4F4F2D933D93AD
:080FE8004C931297E5CF089528
:100FF0006F927F928F92CF92DF92EF920F931F9317
:10100000CF93DF938C016A01E62EE9013A01862E27
:10101000620E731E811C37FD8A94C614D704E8043F
:1010200079F0F6018491E7FC8081B801082E000C6C
:10103000990B0E9456068FEFC81AD80AE80AEDCF1E
:10104000CE01DF91CF911F910F91EF90DF90CF9064
:081050008F907F906F900895CE
:10105800A1E21A2EAA1BBB1BFD010DC0AA1FBB1FB4
:10106800EE1FFF1FA217B307E407F50720F0A21B26
:10107800B30BE40BF50B661F771F881F991F1A9493
:1010880069F760957095809590959B01AC01BD01BD
:04109800CF010895E7
:10109C002F923F924F925F926F927F928F929F927C
:1010AC00AF92BF92CF92DF92EF92FF920F931F936A
:1010BC00CF93DF93CDB7DEB7CA1BDB0B0FB6F8941B
:0810CC00DEBF0FBECDBF099489
:1010D4002A88398848885F846E847D848C849B84C4
:1010E400AA84B984C884DF80EE80FD800C811B81D2
:1010F400AA81B981CE0FD11D0FB6F894DEBF0FBE01
:06110400CDBFED010895CE
:10110A00A2E0B0E0EBE8F8E00C945C088C013A83CA
:10111A0029839E012F5F3F4F0E94ED06F80120812F
:10112A0024FF02C08FEF9FEF2296E4E00C94780828
:10113A00CF92DF92EF926B01E82EA82FCB01FC0130
:10114A002491A7FD2081222319F00196A11DF7CF32
:0C115A008C199D09EF90DF90CF90089554
:10116600A0E0B0E0E9EBF8E00C945E089E01265F93
:101176003F4F4F81588569858D819E810E94F90870
:06118600E2E00C947A087F
:10118C0082BBA898A998AA9A8FE097E20197F1F7E9
:10119C0000C00000AA988FE097E20197F1F700C019
:0411AC0000000895A2
:1011B00082BBA89AA998AA9A8FE097E20197F1F7C3
:1011C00000C00000AA988FE097E20197F1F700C0F5
:0411D000000008957E
:1011D400CF93DF93EC018881882331F021960E941C
:0E11E400D80889918111FBCFDF91CF9108953A
:1011F2000F931F9389019A01462F6FEF7FE70E9499
:0812020068051F910F9108958A
:10120A00EC010E9434090E943309CE010E9435097B
:06121A00CE010E94310923
:10122000806487B9369A349BFECF84B195B19927F3
:0212300008951F
:101232009C01215631092A31310510F48F75992705
:0212420008950D
:101244009C01215431092A31310508F48062089542
:0A12540080E487B983E886B90895A5
:04125E000C940000EC
:041262000E94550091
:021266000895E9
:021268000895E7
:02126A000895E5
:00000001FF
