:100000000C942E000C948C010C948C010C948C019B
:100010000C948C010C948C010C948C010C948C012C
:100020000C948C010C948C010C948C010C948C011C
:100030000C948C010C948C010C9458000C948C0141
:100040000C948C010C948C010C948C010C948C01FC
:100050000C948C010060006F0003260011241FBE69
:10006000CFE5D4E0DEBFCDBFE4E5F0E040E017C06F
:10007000B591A59135912591059107FD0CC09591FC
:100080008591EF01F92FE82F05900D92A217B30784
:10009000D9F7FE0104C01D92A217B307E1F7EB35B3
:1000A000F40731F70E9427010C948101F894FFCFE7
:1000B0001F920F920FB60F9211240F931F932F933D
:1000C0003F934F935F936F937F938F939F93AF93E0
:1000D000BF93CF93DF93EF93FF9394B1C5B184E0C7
:1000E000C89F90011124C92FD0E00024CC0FDD1F40
:1000F000001CCC0FDD1F001CCD2FD02DC22BD32B0D
:1001000080916D0090916E00C817D90779F0909A90
:100110009FEF24E33CE0915020403040E1F700C0E5
:1001200000009098D0936E00C0936D0080E80E940C
:10013000730180EC0E9473019E01369527953695D8
:10014000279536952795A5ECB0E20E9464018C01B5
:10015000129502950F7001271F70012780E3800F11
:100160000E94410128EE33E0029FC001039F900DE1
:10017000129F900D11249E01281B390B369527954F
:1001800036952795ABE7B4E10E9464019695879573
:10019000805D0E9441019E013695279536952795F1
:1001A000ABE7B4E10E9464019695879544E6489FC9
:1001B0009001499F300D1124CE01821B930B9C01AD
:1001C000ADECBCEC0E946401969587959695879559
:1001D00096958795805D0E9441019E01ADECBCEC37
:1001E0000E94640196958795969587959695879533
:1001F000880F991F9C01220F331F220F331F820F7C
:10020000931F9E01281B390BC901805D0E9441018B
:100210003FEF84E39CE0315080409040E1F700C024
:1002200000003498FF91EF91DF91CF91BF91AF9192
:100230009F918F917F916F915F914F913F912F91FE
:0E0240001F910F910F900FBE0F901F901895F9
:10024E001ABA8FEF87BB81BB88E30E94730180E8E7
:10025E000E94730181E00E9473018CE00E94730181
:10026E0080E690E00E94550198EC80E696B987B939
:04027E007894FCCFA5
:1002820088BB82B3806A82BB2FEF89EF90E0215056
:1002920080409040E1F700C0000082B38F7C82BBB7
:0802A20082B3807882BB08954D
:1002AA00CF93DF93EC018881882331F021960E9455
:0E02BA00410189918111FBCFDF91CF91089511
:1002C800A29FB001B39FC001A39F700D811D11248F
:0E02D800911DB29F700D811D1124911D08957E
:1002E60088BB959A2FEF89EF90E02150804090408F
:0C02F600E1F700C0000082B312BA0895C6
:10030200EC010E9491010E949001CE010E94920193
:06031200CE010E948E01E5
:040318000C94000041
:04031C000E945600E5
:0203200008953E
:0203220008953C
:0203240008953A
:0D03260041444320524157204F2F503A00D0
:02033300FFFFCA
:00000001FF
